{
  "_format": "hh-sol-artifact-1",
  "contractName": "Distributor",
  "sourceName": "contracts/Distributor.sol",
  "abi": [
    {
      "inputs": [
        {
          "internalType": "address",
          "name": "_tokenAddress",
          "type": "address"
        },
        {
          "internalType": "address",
          "name": "_initialOwner",
          "type": "address"
        }
      ],
      "stateMutability": "nonpayable",
      "type": "constructor"
    },
    {
      "inputs": [
        {
          "internalType": "address",
          "name": "owner",
          "type": "address"
        }
      ],
      "name": "OwnableInvalidOwner",
      "type": "error"
    },
    {
      "inputs": [
        {
          "internalType": "address",
          "name": "account",
          "type": "address"
        }
      ],
      "name": "OwnableUnauthorizedAccount",
      "type": "error"
    },
    {
      "anonymous": false,
      "inputs": [
        {
          "indexed": true,
          "internalType": "address",
          "name": "previousOwner",
          "type": "address"
        },
        {
          "indexed": true,
          "internalType": "address",
          "name": "newOwner",
          "type": "address"
        }
      ],
      "name": "OwnershipTransferred",
      "type": "event"
    },
    {
      "inputs": [
        {
          "internalType": "address",
          "name": "recipient",
          "type": "address"
        },
        {
          "internalType": "uint256",
          "name": "amount",
          "type": "uint256"
        }
      ],
      "name": "distributeRewards",
      "outputs": [],
      "stateMutability": "nonpayable",
      "type": "function"
    },
    {
      "inputs": [],
      "name": "owner",
      "outputs": [
        {
          "internalType": "address",
          "name": "",
          "type": "address"
        }
      ],
      "stateMutability": "view",
      "type": "function"
    },
    {
      "inputs": [],
      "name": "renounceOwnership",
      "outputs": [],
      "stateMutability": "nonpayable",
      "type": "function"
    },
    {
      "inputs": [],
      "name": "rewardToken",
      "outputs": [
        {
          "internalType": "contract IERC20",
          "name": "",
          "type": "address"
        }
      ],
      "stateMutability": "view",
      "type": "function"
    },
    {
      "inputs": [
        {
          "internalType": "address",
          "name": "newOwner",
          "type": "address"
        }
      ],
      "name": "transferOwnership",
      "outputs": [],
      "stateMutability": "nonpayable",
      "type": "function"
    }
  ],
  "bytecode": "0x608060405234801561001057600080fd5b5060405161099838038061099883398181016040528101906100329190610224565b80600073ffffffffffffffffffffffffffffffffffffffff168173ffffffffffffffffffffffffffffffffffffffff16036100a55760006040517f1e4fbdf700000000000000000000000000000000000000000000000000000000815260040161009c9190610273565b60405180910390fd5b6100b4816100fd60201b60201c565b5081600160006101000a81548173ffffffffffffffffffffffffffffffffffffffff021916908373ffffffffffffffffffffffffffffffffffffffff160217905550505061028e565b60008060009054906101000a900473ffffffffffffffffffffffffffffffffffffffff169050816000806101000a81548173ffffffffffffffffffffffffffffffffffffffff021916908373ffffffffffffffffffffffffffffffffffffffff1602179055508173ffffffffffffffffffffffffffffffffffffffff168173ffffffffffffffffffffffffffffffffffffffff167f8be0079c531659141344cd1fd0a4f28419497f9722a3daafe3b4186f6b6457e060405160405180910390a35050565b600080fd5b600073ffffffffffffffffffffffffffffffffffffffff82169050919050565b60006101f1826101c6565b9050919050565b610201816101e6565b811461020c57600080fd5b50565b60008151905061021e816101f8565b92915050565b6000806040838503121561023b5761023a6101c1565b5b60006102498582860161020f565b925050602061025a8582860161020f565b9150509250929050565b61026d816101e6565b82525050565b60006020820190506102886000830184610264565b92915050565b6106fb8061029d6000396000f3fe608060405234801561001057600080fd5b50600436106100575760003560e01c8063715018a61461005c5780638da5cb5b14610066578063a8031a1d14610084578063f2fde38b146100a0578063f7c618c1146100bc575b600080fd5b6100646100da565b005b61006e6100ee565b60405161007b9190610442565b60405180910390f35b61009e600480360381019061009991906104c4565b610117565b005b6100ba60048036038101906100b59190610504565b610202565b005b6100c4610288565b6040516100d19190610590565b60405180910390f35b6100e26102ae565b6100ec6000610335565b565b60008060009054906101000a900473ffffffffffffffffffffffffffffffffffffffff16905090565b61011f6102ae565b600160009054906101000a900473ffffffffffffffffffffffffffffffffffffffff1673ffffffffffffffffffffffffffffffffffffffff1663a9059cbb83836040518363ffffffff1660e01b815260040161017c9291906105ba565b6020604051808303816000875af115801561019b573d6000803e3d6000fd5b505050506040513d601f19601f820116820180604052508101906101bf919061061b565b6101fe576040517f08c379a00000000000000000000000000000000000000000000000000000000081526004016101f5906106a5565b60405180910390fd5b5050565b61020a6102ae565b600073ffffffffffffffffffffffffffffffffffffffff168173ffffffffffffffffffffffffffffffffffffffff160361027c5760006040517f1e4fbdf70000000000000000000000000000000000000000000000000000000081526004016102739190610442565b60405180910390fd5b61028581610335565b50565b600160009054906101000a900473ffffffffffffffffffffffffffffffffffffffff1681565b6102b66103f9565b73ffffffffffffffffffffffffffffffffffffffff166102d46100ee565b73ffffffffffffffffffffffffffffffffffffffff1614610333576102f76103f9565b6040517f118cdaa700000000000000000000000000000000000000000000000000000000815260040161032a9190610442565b60405180910390fd5b565b60008060009054906101000a900473ffffffffffffffffffffffffffffffffffffffff169050816000806101000a81548173ffffffffffffffffffffffffffffffffffffffff021916908373ffffffffffffffffffffffffffffffffffffffff1602179055508173ffffffffffffffffffffffffffffffffffffffff168173ffffffffffffffffffffffffffffffffffffffff167f8be0079c531659141344cd1fd0a4f28419497f9722a3daafe3b4186f6b6457e060405160405180910390a35050565b600033905090565b600073ffffffffffffffffffffffffffffffffffffffff82169050919050565b600061042c82610401565b9050919050565b61043c81610421565b82525050565b60006020820190506104576000830184610433565b92915050565b600080fd5b61046b81610421565b811461047657600080fd5b50565b60008135905061048881610462565b92915050565b6000819050919050565b6104a18161048e565b81146104ac57600080fd5b50565b6000813590506104be81610498565b92915050565b600080604083850312156104db576104da61045d565b5b60006104e985828601610479565b92505060206104fa858286016104af565b9150509250929050565b60006020828403121561051a5761051961045d565b5b600061052884828501610479565b91505092915050565b6000819050919050565b600061055661055161054c84610401565b610531565b610401565b9050919050565b60006105688261053b565b9050919050565b600061057a8261055d565b9050919050565b61058a8161056f565b82525050565b60006020820190506105a56000830184610581565b92915050565b6105b48161048e565b82525050565b60006040820190506105cf6000830185610433565b6105dc60208301846105ab565b9392505050565b60008115159050919050565b6105f8816105e3565b811461060357600080fd5b50565b600081519050610615816105ef565b92915050565b6000602082840312156106315761063061045d565b5b600061063f84828501610606565b91505092915050565b600082825260208201905092915050565b7f5472616e73666572206661696c65640000000000000000000000000000000000600082015250565b600061068f600f83610648565b915061069a82610659565b602082019050919050565b600060208201905081810360008301526106be81610682565b905091905056fea264697066735822122072d6487e8a6832c083d00e341ba7532f7e50283e261328bcf5d96b7644bfad3064736f6c634300081c0033",
  "linkReferences": {},
  "deployedLinkReferences": {}
}